:100000000C945D000C9485000C9485000C94850084
:100010000C9485000C9485000C9485000C9485004C
:100020000C9485000C9485000C9485000C9485003C
:100030000C9485000C9485000C9485000C9485002C
:100040000C9481020C9485000C9485000C9485001E
:100050000C9485000C9485000C9485000C9485000C
:100060000C9485000C94850000000008000201003B
:100070000003040700000000000000000000000072
:10008000250028002B0000000000240027002A0083
:10009000040404040404040402020202020203032E
:1000A0000303030301020408102040800102040836
:1000B0001020010204081020B10311241FBECFEF4D
:1000C000D8E0DEBFCDBF11E0A0E0B1E0EEE5F8E0A2
:1000D00002C005900D92A236B107D9F721E0A2E641
:1000E000B1E001C01D92A338B207E1F710E0CDE501
:1000F000D0E004C02197FE010E942704CC35D1072F
:10010000C9F70E94CB020C942D040C94000090E0DF
:10011000FC01EC55FF4F249180579F4FFC018491C7
:10012000882399F090E0880F991FFC01EA57FF4F50
:10013000A591B491FC01E458FF4F859194918FB73C
:10014000F894EC91E22BEC938FBF089590E0FC01C2
:10015000E859FF4F2491FC01EC55FF4F3491FC010D
:10016000E057FF4FE491EE23C9F0222339F023300A
:1001700001F1A8F4213019F1223029F1F0E0EE0F5D
:10018000FF1FE458FF4FA591B4918FB7F894EC91FD
:10019000611126C030953E233C938FBF08952730D0
:1001A000A9F02830C9F0243049F7809180008F7D74
:1001B00003C0809180008F7780938000DFCF84B56B
:1001C0008F7784BDDBCF84B58F7DFBCF8091B0006E
:1001D0008F778093B000D2CF8091B0008F7DF9CF20
:1001E0003E2BDACFAF92BF92CF92DF92EF92FF9287
:1001F0000F931F93CF93DF936C017B018B01040F4F
:10020000151FEB015E01AE18BF08C017D10759F0EA
:100210006991D601ED91FC910190F081E02DC6012C
:100220000995892B79F7C501DF91CF911F910F9126
:10023000FF90EF90DF90CF90BF90AF90089508951A
:1002400090E080E00895FC0101900020E9F73197EB
:10025000AF01481B590BBC018BE691E00C94F200F6
:10026000CF93DF93EC0160E08E810E94A60061E0F5
:100270008E810E94A60060E08E810E94A6008BE81D
:1002800091E00197F1F7DF91CF910895CF92DF923E
:10029000EF92FF920F931F93CF93DF936C017C013A
:1002A00087E0E80EF11CD0E0C0E0062F10E0B801B6
:1002B0000C2E02C0759567950A94E2F76170F701FC
:1002C00081917F010E94A6002196C430D10579F763
:1002D000C601DF91CF911F910F91FF90EF90DF90BA
:1002E000CF900C943001CF92DF92EF92FF920F9358
:1002F0001F93CF93DF93EC01F62E642F8C810E9425
:10030000A6008D818F3F19F060E00E94A6000F2D9E
:1003100010E08F8584FF25C06E0187E0C80ED11CD8
:10032000F12CE12CB8010E2C02C0759567950A944A
:10033000E2F76170F60181916F010E94A600FFEF64
:10034000EF1AFF0A88E0E816F10461F7CE01DF91A9
:10035000CF911F910F91FF90EF90DF90CF900C9471
:100360003001B80184E0759567958A95E1F7CE0173
:100370000E9446016F2DCE01DF91CF911F910F9109
:10038000FF90EF90DF90CF900C94460140E0682FF3
:100390008BE691E00C947301CF93DF93613029F0E9
:1003A00090917A01986090937A0160937E01109207
:1003B0007F0190E49093800180938101805C809321
:1003C000820180916F010E948700809170018F3FB0
:1003D00011F00E948700809171010E948700CBE696
:1003E000D1E09E012B56314080917A0184FD0AC0F4
:1003F00084E090E02196281739073CF48E810E9412
:100400008700EFCF88E090E0F5CF8BE39DE0019788
:10041000F1F760E080916F010E94A60060E080919A
:1004200071010E94A600809170018F3F19F060E079
:100430000E94A60080917A0184FD39C063E08BE6BA
:1004400091E00E944601CBE4D6E4CE010197F1F79A
:1004500063E08BE691E00E9446012197F1F763E0AB
:100460008BE691E00E94460183E592E00197F1F767
:1004700062E08BE691E00E94460180917A01806201
:100480000E94C60184E080937B018CE00E94C6013B
:1004900081E00E94C6018BE39FE10197F1F782E0C2
:1004A00080937C0186E0DF91CF910C94C60180623D
:1004B0000E94C6018BE496E40197F1F780917A01DE
:1004C00080620E94C60183E592E00197F1F7809176
:1004D0007A0180620E94C601D0CF90917E01891777
:1004E00010F08FEF890FE82FF0E0E559FE4F848977
:1004F00080680C94C60141E00E94730181E090E0A5
:1005000008951F920F920FB60F9211242F933F93CD
:100510008F939F93AF93BF938091670190916801F0
:10052000A0916901B0916A013091660123E0230F27
:100530002D3758F50196A11DB11D209366018093BA
:10054000670190936801A0936901B0936A0180915B
:10055000620190916301A0916401B09165010196DF
:10056000A11DB11D8093620190936301A09364016A
:10057000B0936501BF91AF919F918F913F912F9162
:100580000F900FBE0F901F90189526E8230F02962C
:10059000A11DB11DD2CFCF93DF93CDB7DEB7A19709
:1005A0000FB6F894DEBF0FBECDBF789484B58260DD
:1005B00084BD84B5816084BD85B5826085BD85B507
:1005C000816085BD80916E00816080936E00109285
:1005D0008100809181008260809381008091810000
:1005E0008160809381008091800081608093800091
:1005F0008091B10084608093B1008091B0008160EF
:100600008093B00080917A00846080937A0080911A
:100610007A00826080937A0080917A008160809372
:100620007A0080917A00806880937A001092C100ED
:1006300064E084E10E94CC0180E00E946D028CE0C5
:1006400091E00E94230181E00E946D0283E291E02B
:100650000E94230180E4382E44244A9493E0592ECA
:10066000612C712C2AE0C22ED12CE12CF12C30927D
:100670007C0080917A00806480937A0080917A0077
:1006800086FDFCCFA0917800B091790024E630E09F
:100690000E942004A30192010E94D00349015A0143
:1006A00082E00E946D0288E391E00E94230183E0D2
:1006B0000E946D028DE491E00E942301B7FE3BC0D1
:1006C00041E06DE28BE691E00E947301222733271F
:1006D000A901281939094A095B0919A28E010F5D80
:1006E0001F4FCA01B901A70196010E94EF03605D87
:1006F000F80162938F01211531054105510589F7F4
:100700000115110561F001900020E9F73197AF0163
:10071000401B510BB8018BE691E00E94F2008DE581
:1007200091E00E94230180E090E0892B09F49FCFA3
:100730000E9400009CCFA501940119A28E010F5DBB
:100740001F4FCA01B901A70196010E94EF03605D26
:10075000F80162938F01211531054105510589F793
:10076000CFCFEBE6F1E01382128284E091E0918337
:1007700080838DE084838FEF85838CE086838BE09C
:1007800087838AE0808789E0818788E08287138673
:10079000148615861686178661E080E10C94CC01DC
:1007A000052E97FB1EF400940E94E70357FD07D027
:1007B0000E94EF0307FC03D04EF40C94E70350951E
:1007C0004095309521953F4F4F4F5F4F089590953D
:1007D0008095709561957F4F8F4F9F4F0895A1E24F
:1007E0001A2EAA1BBB1BFD010DC0AA1FBB1FEE1FAB
:1007F000FF1FA217B307E407F50720F0A21BB30BF6
:10080000E40BF50B661F771F881F991F1A9469F771
:1008100060957095809590959B01AC01BD01CF01CD
:100820000895A29FB001B39FC001A39F700D811DC9
:100830001124911DB29F700D811D1124911D0895E9
:100840000E941104B7FF0895821B930B0895EE0FC9
:0E085000FF1F0590F491E02D0994F894FFCF5E
:10085E00000000007B02F20020011F0120205448FE
:10086E004520425249474854204C4947485420207D
:10087E00202000534F494C204D4F4953545552455B
:10088E002053454E534F5200202020202020202060
:10089E002A2A2A2A202020202020202000536F6977
:1008AE006C204D6F6973747572653A200025202097
:0208BE00200018
:00000001FF
